{"abi":[{"type":"constructor","inputs":[{"name":"_nexusToken","type":"address","internalType":"address"},{"name":"_suiBridge","type":"address","internalType":"address"}],"stateMutability":"nonpayable"},{"type":"function","name":"bridgeTokensFromEth","inputs":[{"name":"to","type":"address","internalType":"address"},{"name":"amount","type":"uint256","internalType":"uint256"}],"outputs":[],"stateMutability":"nonpayable"},{"type":"function","name":"bridgeTokensFromSui","inputs":[{"name":"from","type":"address","internalType":"address"},{"name":"amount","type":"uint256","internalType":"uint256"}],"outputs":[],"stateMutability":"nonpayable"},{"type":"function","name":"bridgeTokensToEthereum","inputs":[{"name":"from","type":"address","internalType":"address"},{"name":"amount","type":"uint256","internalType":"uint256"}],"outputs":[],"stateMutability":"nonpayable"},{"type":"function","name":"bridgeTokensToSui","inputs":[{"name":"to","type":"address","internalType":"address"},{"name":"amount","type":"uint256","internalType":"uint256"}],"outputs":[],"stateMutability":"nonpayable"},{"type":"function","name":"nexusToken","inputs":[],"outputs":[{"name":"","type":"address","internalType":"contract NexusToken"}],"stateMutability":"view"},{"type":"function","name":"owner","inputs":[],"outputs":[{"name":"","type":"address","internalType":"address"}],"stateMutability":"view"},{"type":"function","name":"suiBridge","inputs":[],"outputs":[{"name":"","type":"address","internalType":"address"}],"stateMutability":"view"},{"type":"event","name":"TokensBridgedFromEth","inputs":[{"name":"from","type":"address","indexed":true,"internalType":"address"},{"name":"amount","type":"uint256","indexed":false,"internalType":"uint256"}],"anonymous":false},{"type":"event","name":"TokensBridgedFromSui","inputs":[{"name":"from","type":"address","indexed":true,"internalType":"address"},{"name":"amount","type":"uint256","indexed":false,"internalType":"uint256"}],"anonymous":false},{"type":"event","name":"TokensBridgedToEth","inputs":[{"name":"to","type":"address","indexed":true,"internalType":"address"},{"name":"amount","type":"uint256","indexed":false,"internalType":"uint256"}],"anonymous":false},{"type":"event","name":"TokensBridgedToSui","inputs":[{"name":"to","type":"address","indexed":true,"internalType":"address"},{"name":"amount","type":"uint256","indexed":false,"internalType":"uint256"}],"anonymous":false}],"bytecode":{"object":"0x6080604052348015600e575f5ffd5b50604051610852380380610852833981016040819052602b916084565b600280546001600160a01b039384166001600160a01b0319918216179091556001805492909316918116919091179091555f80549091163317905560b0565b80516001600160a01b0381168114607f575f5ffd5b919050565b5f5f604083850312156094575f5ffd5b609b83606a565b915060a760208401606a565b90509250929050565b610795806100bd5f395ff3fe608060405234801561000f575f5ffd5b506004361061007a575f3560e01c8063804873511161005857806380487351146100d55780638da5cb5b146100e8578063af0442e1146100fa578063c22b88a81461010d575f5ffd5b806359994e5f1461007e5780636f7e070f1461009357806378f337e7146100a6575b5f5ffd5b61009161008c366004610713565b610120565b005b6100916100a1366004610713565b610278565b6002546100b9906001600160a01b031681565b6040516001600160a01b03909116815260200160405180910390f35b6100916100e3366004610713565b610375565b5f546100b9906001600160a01b031681565b610091610108366004610713565b6104bc565b6001546100b9906001600160a01b031681565b5f546001600160a01b0316331461016f5760405162461bcd60e51b815260206004820152600e60248201526d139bdd08185d5d1a1bdc9a5e995960921b60448201526064015b60405180910390fd5b6001546040516351c7e67360e01b81526001600160a01b03848116600483015260248201849052909116906351c7e673906044015f604051808303815f87803b1580156101ba575f5ffd5b505af11580156101cc573d5f5f3e3d5ffd5b50506002546040516346154c9f60e11b81526001600160a01b038681166004830152602482018690529091169250638c2a993e91506044015f604051808303815f87803b15801561021b575f5ffd5b505af115801561022d573d5f5f3e3d5ffd5b50505050816001600160a01b03167f97ada48a4fb40a47e94788b124bb7ff73a696b1e28d2ec95191497006433c4928260405161026c91815260200190565b60405180910390a25050565b6001546040516351c7e67360e01b81526001600160a01b03848116600483015260248201849052909116906351c7e673906044015f604051808303815f87803b1580156102c3575f5ffd5b505af11580156102d5573d5f5f3e3d5ffd5b50506002546040516346154c9f60e11b81526001600160a01b038681166004830152602482018690529091169250638c2a993e91506044015f604051808303815f87803b158015610324575f5ffd5b505af1158015610336573d5f5f3e3d5ffd5b50505050816001600160a01b03167fec2dafeee4e305ff95f5b633cf44b119f88e1343cf32b623b3bc6c4fa9f07ccb8260405161026c91815260200190565b5f546001600160a01b031633146103bf5760405162461bcd60e51b815260206004820152600e60248201526d139bdd08185d5d1a1bdc9a5e995960921b6044820152606401610166565b6001546040516351c7e67360e01b81526001600160a01b03848116600483015260248201849052909116906351c7e673906044015f604051808303815f87803b15801561040a575f5ffd5b505af115801561041c573d5f5f3e3d5ffd5b50506002546040516346154c9f60e11b81526001600160a01b038681166004830152602482018690529091169250638c2a993e91506044015f604051808303815f87803b15801561046b575f5ffd5b505af115801561047d573d5f5f3e3d5ffd5b50505050816001600160a01b03167fa77ba4466c7070b7a1fd9f50656004bf45893aa3b79d7c8510baf5b88d17c59b8260405161026c91815260200190565b6002546040516370a0823160e01b815233600482015282916001600160a01b0316906370a0823190602401602060405180830381865afa158015610502573d5f5f3e3d5ffd5b505050506040513d601f19601f820116820180604052508101906105269190610748565b101561056b5760405162461bcd60e51b8152602060048201526014602482015273496e73756666696369656e742062616c616e636560601b6044820152606401610166565b600254604051636eb1769f60e11b815233600482015230602482015282916001600160a01b03169063dd62ed3e90604401602060405180830381865afa1580156105b7573d5f5f3e3d5ffd5b505050506040513d601f19601f820116820180604052508101906105db9190610748565b101561061e5760405162461bcd60e51b8152602060048201526012602482015271105b1b1bddd85b98d9481c995c5d5a5c995960721b6044820152606401610166565b600254604051630852cd8d60e31b8152600481018390526001600160a01b03909116906342966c68906024015f604051808303815f87803b158015610661575f5ffd5b505af1158015610673573d5f5f3e3d5ffd5b5050600154604051637ca724c560e01b81526001600160a01b038681166004830152602482018690529091169250637ca724c591506044015f604051808303815f87803b1580156106c2575f5ffd5b505af11580156106d4573d5f5f3e3d5ffd5b50505050816001600160a01b03167f343ac30954e1290f22567ccf3b287ffb6d2c00eb7df5c79870a94f8c1ecd6d8b8260405161026c91815260200190565b5f5f60408385031215610724575f5ffd5b82356001600160a01b038116811461073a575f5ffd5b946020939093013593505050565b5f60208284031215610758575f5ffd5b505191905056fea26469706673582212204a7a5c47a213f36a19b3f10639ccf700c0935e03db0f37cf9f9ae40a57e5d52e64736f6c634300081c0033","linkReferences":{}},"methodIdentifiers":{"bridgeTokensFromEth(address,uint256)":"80487351","bridgeTokensFromSui(address,uint256)":"6f7e070f","bridgeTokensToEthereum(address,uint256)":"59994e5f","bridgeTokensToSui(address,uint256)":"af0442e1","nexusToken()":"78f337e7","owner()":"8da5cb5b","suiBridge()":"c22b88a8"},"id":31}