{"abi":[{"type":"constructor","inputs":[{"name":"name","type":"string","internalType":"string"},{"name":"symbol","type":"string","internalType":"string"},{"name":"decimals","type":"uint8","internalType":"uint8"},{"name":"initialOwner","type":"address","internalType":"address"}],"stateMutability":"nonpayable"},{"type":"function","name":"allowance","inputs":[{"name":"owner","type":"address","internalType":"address"},{"name":"spender","type":"address","internalType":"address"}],"outputs":[{"name":"","type":"uint256","internalType":"uint256"}],"stateMutability":"view"},{"type":"function","name":"approve","inputs":[{"name":"spender","type":"address","internalType":"address"},{"name":"value","type":"uint256","internalType":"uint256"}],"outputs":[{"name":"","type":"bool","internalType":"bool"}],"stateMutability":"nonpayable"},{"type":"function","name":"balanceOf","inputs":[{"name":"account","type":"address","internalType":"address"}],"outputs":[{"name":"","type":"uint256","internalType":"uint256"}],"stateMutability":"view"},{"type":"function","name":"bridgeMint","inputs":[{"name":"to","type":"address","internalType":"address"},{"name":"amount","type":"uint256","internalType":"uint256"}],"outputs":[],"stateMutability":"nonpayable"},{"type":"function","name":"burn","inputs":[{"name":"amount","type":"uint256","internalType":"uint256"}],"outputs":[],"stateMutability":"nonpayable"},{"type":"function","name":"burnFrom","inputs":[{"name":"account","type":"address","internalType":"address"},{"name":"amount","type":"uint256","internalType":"uint256"}],"outputs":[],"stateMutability":"nonpayable"},{"type":"function","name":"decimals","inputs":[],"outputs":[{"name":"","type":"uint8","internalType":"uint8"}],"stateMutability":"view"},{"type":"function","name":"mint","inputs":[{"name":"to","type":"address","internalType":"address"},{"name":"amount","type":"uint256","internalType":"uint256"}],"outputs":[],"stateMutability":"nonpayable"},{"type":"function","name":"name","inputs":[],"outputs":[{"name":"","type":"string","internalType":"string"}],"stateMutability":"view"},{"type":"function","name":"owner","inputs":[],"outputs":[{"name":"","type":"address","internalType":"address"}],"stateMutability":"view"},{"type":"function","name":"renounceOwnership","inputs":[],"outputs":[],"stateMutability":"nonpayable"},{"type":"function","name":"symbol","inputs":[],"outputs":[{"name":"","type":"string","internalType":"string"}],"stateMutability":"view"},{"type":"function","name":"totalSupply","inputs":[],"outputs":[{"name":"","type":"uint256","internalType":"uint256"}],"stateMutability":"view"},{"type":"function","name":"transfer","inputs":[{"name":"to","type":"address","internalType":"address"},{"name":"value","type":"uint256","internalType":"uint256"}],"outputs":[{"name":"","type":"bool","internalType":"bool"}],"stateMutability":"nonpayable"},{"type":"function","name":"transferFrom","inputs":[{"name":"from","type":"address","internalType":"address"},{"name":"to","type":"address","internalType":"address"},{"name":"value","type":"uint256","internalType":"uint256"}],"outputs":[{"name":"","type":"bool","internalType":"bool"}],"stateMutability":"nonpayable"},{"type":"function","name":"transferOwnership","inputs":[{"name":"newOwner","type":"address","internalType":"address"}],"outputs":[],"stateMutability":"nonpayable"},{"type":"event","name":"Approval","inputs":[{"name":"owner","type":"address","indexed":true,"internalType":"address"},{"name":"spender","type":"address","indexed":true,"internalType":"address"},{"name":"value","type":"uint256","indexed":false,"internalType":"uint256"}],"anonymous":false},{"type":"event","name":"Bridged","inputs":[{"name":"user","type":"address","indexed":true,"internalType":"address"},{"name":"amount","type":"uint256","indexed":false,"internalType":"uint256"},{"name":"timestamp","type":"uint256","indexed":false,"internalType":"uint256"}],"anonymous":false},{"type":"event","name":"OwnershipTransferred","inputs":[{"name":"previousOwner","type":"address","indexed":true,"internalType":"address"},{"name":"newOwner","type":"address","indexed":true,"internalType":"address"}],"anonymous":false},{"type":"event","name":"Transfer","inputs":[{"name":"from","type":"address","indexed":true,"internalType":"address"},{"name":"to","type":"address","indexed":true,"internalType":"address"},{"name":"value","type":"uint256","indexed":false,"internalType":"uint256"}],"anonymous":false},{"type":"error","name":"ERC20InsufficientAllowance","inputs":[{"name":"spender","type":"address","internalType":"address"},{"name":"allowance","type":"uint256","internalType":"uint256"},{"name":"needed","type":"uint256","internalType":"uint256"}]},{"type":"error","name":"ERC20InsufficientBalance","inputs":[{"name":"sender","type":"address","internalType":"address"},{"name":"balance","type":"uint256","internalType":"uint256"},{"name":"needed","type":"uint256","internalType":"uint256"}]},{"type":"error","name":"ERC20InvalidApprover","inputs":[{"name":"approver","type":"address","internalType":"address"}]},{"type":"error","name":"ERC20InvalidReceiver","inputs":[{"name":"receiver","type":"address","internalType":"address"}]},{"type":"error","name":"ERC20InvalidSender","inputs":[{"name":"sender","type":"address","internalType":"address"}]},{"type":"error","name":"ERC20InvalidSpender","inputs":[{"name":"spender","type":"address","internalType":"address"}]},{"type":"error","name":"OwnableInvalidOwner","inputs":[{"name":"owner","type":"address","internalType":"address"}]},{"type":"error","name":"OwnableUnauthorizedAccount","inputs":[{"name":"account","type":"address","internalType":"address"}]}],"bytecode":{"object":"0x608060405234801561000f575f5ffd5b5060405161103d38038061103d83398101604081905261002e916102fd565b808484600361003d838261041b565b50600461004a828261041b565b5050506001600160a01b03811661007b57604051631e4fbdf760e01b81525f60048201526024015b60405180910390fd5b610084816100b1565b506100a88161009760ff8516600a6105ce565b6100a3906103e86105e0565b610102565b5050505061060a565b600580546001600160a01b038381166001600160a01b0319831681179093556040519116919082907f8be0079c531659141344cd1fd0a4f28419497f9722a3daafe3b4186f6b6457e0905f90a35050565b6001600160a01b03821661012b5760405163ec442f0560e01b81525f6004820152602401610072565b6101365f838361013a565b5050565b6001600160a01b038316610164578060025f82825461015991906105f7565b909155506101d49050565b6001600160a01b0383165f90815260208190526040902054818110156101b65760405163391434e360e21b81526001600160a01b03851660048201526024810182905260448101839052606401610072565b6001600160a01b0384165f9081526020819052604090209082900390555b6001600160a01b0382166101f05760028054829003905561020e565b6001600160a01b0382165f9081526020819052604090208054820190555b816001600160a01b0316836001600160a01b03167fddf252ad1be2c89b69c2b068fc378daa952ba7f163c4a11628f55a4df523b3ef8360405161025391815260200190565b60405180910390a3505050565b634e487b7160e01b5f52604160045260245ffd5b5f82601f830112610283575f5ffd5b81516001600160401b0381111561029c5761029c610260565b604051601f8201601f19908116603f011681016001600160401b03811182821017156102ca576102ca610260565b6040528181528382016020018510156102e1575f5ffd5b8160208501602083015e5f918101602001919091529392505050565b5f5f5f5f60808587031215610310575f5ffd5b84516001600160401b03811115610325575f5ffd5b61033187828801610274565b602087015190955090506001600160401b0381111561034e575f5ffd5b61035a87828801610274565b935050604085015160ff81168114610370575f5ffd5b60608601519092506001600160a01b038116811461038c575f5ffd5b939692955090935050565b600181811c908216806103ab57607f821691505b6020821081036103c957634e487b7160e01b5f52602260045260245ffd5b50919050565b601f82111561041657805f5260205f20601f840160051c810160208510156103f45750805b601f840160051c820191505b81811015610413575f8155600101610400565b50505b505050565b81516001600160401b0381111561043457610434610260565b610448816104428454610397565b846103cf565b6020601f82116001811461047a575f83156104635750848201515b5f19600385901b1c1916600184901b178455610413565b5f84815260208120601f198516915b828110156104a95787850151825560209485019460019092019101610489565b50848210156104c657868401515f19600387901b60f8161c191681555b50505050600190811b01905550565b634e487b7160e01b5f52601160045260245ffd5b6001815b600184111561052457808504811115610508576105086104d5565b600184161561051657908102905b60019390931c9280026104ed565b935093915050565b5f8261053a575060016105c8565b8161054657505f6105c8565b816001811461055c576002811461056657610582565b60019150506105c8565b60ff841115610577576105776104d5565b50506001821b6105c8565b5060208310610133831016604e8410600b84101617156105a5575081810a6105c8565b6105b15f1984846104e9565b805f19048211156105c4576105c46104d5565b0290505b92915050565b5f6105d9838361052c565b9392505050565b80820281158282048414176105c8576105c86104d5565b808201808211156105c8576105c86104d5565b610a26806106175f395ff3fe608060405234801561000f575f5ffd5b50600436106100fb575f3560e01c8063715018a61161009357806395d89b411161006357806395d89b41146101fa578063a9059cbb14610202578063dd62ed3e14610215578063f2fde38b14610228575f5ffd5b8063715018a6146101c457806379cc6790146101cc5780638c2a993e146101745780638da5cb5b146101df575f5ffd5b8063313ce567116100ce578063313ce5671461016557806340c10f191461017457806342966c681461018957806370a082311461019c575f5ffd5b806306fdde03146100ff578063095ea7b31461011d57806318160ddd1461014057806323b872dd14610152575b5f5ffd5b61010761023b565b6040516101149190610864565b60405180910390f35b61013061012b3660046108b4565b6102cb565b6040519015158152602001610114565b6002545b604051908152602001610114565b6101306101603660046108dc565b6102e4565b60405160128152602001610114565b6101876101823660046108b4565b610307565b005b610187610197366004610916565b61031d565b6101446101aa36600461092d565b6001600160a01b03165f9081526020819052604090205490565b610187610364565b6101876101da3660046108b4565b610377565b6005546040516001600160a01b039091168152602001610114565b610107610408565b6101306102103660046108b4565b610417565b61014461022336600461094d565b610424565b61018761023636600461092d565b61044e565b60606003805461024a9061097e565b80601f01602080910402602001604051908101604052809291908181526020018280546102769061097e565b80156102c15780601f10610298576101008083540402835291602001916102c1565b820191905f5260205f20905b8154815290600101906020018083116102a457829003601f168201915b5050505050905090565b5f336102d88185856104b8565b60019150505b92915050565b5f336102f18582856104c5565b6102fc858585610529565b506001949350505050565b61030f610586565b61031982826105b3565b5050565b61032733826105e7565b6040805182815242602082015233917f3d5efde88d9de43b0760b6ad214a1e30802b6e8efdf51238202549097ccf0cac910160405180910390a250565b61036c610586565b6103755f61061b565b565b5f6103828333610424565b9050818110156103e55760405162461bcd60e51b8152602060048201526024808201527f45524332303a206275726e20616d6f756e74206578636565647320616c6c6f77604482015263616e636560e01b60648201526084015b60405180910390fd5b6103f983336103f485856109ca565b6104b8565b61040383836105e7565b505050565b60606004805461024a9061097e565b5f336102d8818585610529565b6001600160a01b039182165f90815260016020908152604080832093909416825291909152205490565b610456610586565b6001600160a01b0381166104ac5760405162461bcd60e51b815260206004820152601d60248201527f4e6577206f776e657220697320746865207a65726f206164647265737300000060448201526064016103dc565b6104b58161061b565b50565b610403838383600161066c565b5f6104d08484610424565b90505f19811015610523578181101561051557604051637dc7a0d960e11b81526001600160a01b038416600482015260248101829052604481018390526064016103dc565b61052384848484035f61066c565b50505050565b6001600160a01b03831661055257604051634b637e8f60e11b81525f60048201526024016103dc565b6001600160a01b03821661057b5760405163ec442f0560e01b81525f60048201526024016103dc565b61040383838361073e565b6005546001600160a01b031633146103755760405163118cdaa760e01b81523360048201526024016103dc565b6001600160a01b0382166105dc5760405163ec442f0560e01b81525f60048201526024016103dc565b6103195f838361073e565b6001600160a01b03821661061057604051634b637e8f60e11b81525f60048201526024016103dc565b610319825f8361073e565b600580546001600160a01b038381166001600160a01b0319831681179093556040519116919082907f8be0079c531659141344cd1fd0a4f28419497f9722a3daafe3b4186f6b6457e0905f90a35050565b6001600160a01b0384166106955760405163e602df0560e01b81525f60048201526024016103dc565b6001600160a01b0383166106be57604051634a1406b160e11b81525f60048201526024016103dc565b6001600160a01b038085165f908152600160209081526040808320938716835292905220829055801561052357826001600160a01b0316846001600160a01b03167f8c5be1e5ebec7d5bd14f71427d1e84f3dd0314c0f7b2291e5b200ac8c7c3b9258460405161073091815260200190565b60405180910390a350505050565b6001600160a01b038316610768578060025f82825461075d91906109dd565b909155506107d89050565b6001600160a01b0383165f90815260208190526040902054818110156107ba5760405163391434e360e21b81526001600160a01b038516600482015260248101829052604481018390526064016103dc565b6001600160a01b0384165f9081526020819052604090209082900390555b6001600160a01b0382166107f457600280548290039055610812565b6001600160a01b0382165f9081526020819052604090208054820190555b816001600160a01b0316836001600160a01b03167fddf252ad1be2c89b69c2b068fc378daa952ba7f163c4a11628f55a4df523b3ef8360405161085791815260200190565b60405180910390a3505050565b602081525f82518060208401528060208501604085015e5f604082850101526040601f19601f83011684010191505092915050565b80356001600160a01b03811681146108af575f5ffd5b919050565b5f5f604083850312156108c5575f5ffd5b6108ce83610899565b946020939093013593505050565b5f5f5f606084860312156108ee575f5ffd5b6108f784610899565b925061090560208501610899565b929592945050506040919091013590565b5f60208284031215610926575f5ffd5b5035919050565b5f6020828403121561093d575f5ffd5b61094682610899565b9392505050565b5f5f6040838503121561095e575f5ffd5b61096783610899565b915061097560208401610899565b90509250929050565b600181811c9082168061099257607f821691505b6020821081036109b057634e487b7160e01b5f52602260045260245ffd5b50919050565b634e487b7160e01b5f52601160045260245ffd5b818103818111156102de576102de6109b6565b808201808211156102de576102de6109b656fea2646970667358221220af0ca7e144814647f9ccd50ee0d10bb71ca141f02c7a272afcda9b2e6cba6c1764736f6c634300081c0033","linkReferences":{}},"methodIdentifiers":{"allowance(address,address)":"dd62ed3e","approve(address,uint256)":"095ea7b3","balanceOf(address)":"70a08231","bridgeMint(address,uint256)":"8c2a993e","burn(uint256)":"42966c68","burnFrom(address,uint256)":"79cc6790","decimals()":"313ce567","mint(address,uint256)":"40c10f19","name()":"06fdde03","owner()":"8da5cb5b","renounceOwnership()":"715018a6","symbol()":"95d89b41","totalSupply()":"18160ddd","transfer(address,uint256)":"a9059cbb","transferFrom(address,address,uint256)":"23b872dd","transferOwnership(address)":"f2fde38b"},"id":30}