{"abi":[{"type":"function","name":"burnOnSui","inputs":[{"name":"from","type":"address","internalType":"address"},{"name":"amount","type":"uint256","internalType":"uint256"}],"outputs":[],"stateMutability":"nonpayable"},{"type":"function","name":"mintOnSui","inputs":[{"name":"to","type":"address","internalType":"address"},{"name":"amount","type":"uint256","internalType":"uint256"}],"outputs":[],"stateMutability":"nonpayable"},{"type":"event","name":"BurnOnSuiCalled","inputs":[{"name":"from","type":"address","indexed":true,"internalType":"address"},{"name":"amount","type":"uint256","indexed":false,"internalType":"uint256"}],"anonymous":false},{"type":"event","name":"MintOnSuiCalled","inputs":[{"name":"to","type":"address","indexed":true,"internalType":"address"},{"name":"amount","type":"uint256","indexed":false,"internalType":"uint256"}],"anonymous":false}],"bytecode":{"object":"0x6080604052348015600e575f5ffd5b5061014d8061001c5f395ff3fe608060405234801561000f575f5ffd5b5060043610610034575f3560e01c806351c7e673146100385780637ca724c51461004d575b5f5ffd5b61004b6100463660046100e2565b610060565b005b61004b61005b3660046100e2565b6100a7565b816001600160a01b03167f7c5ca05ac099eee83d7ccac1bc263598a0579a907dd7e6e4f57076be96cc3d8c8260405161009b91815260200190565b60405180910390a25050565b816001600160a01b03167f6725bb2045c96e95452179a06f6f2361a0c5023532890e220a2c4a7e428e7e978260405161009b91815260200190565b5f5f604083850312156100f3575f5ffd5b82356001600160a01b0381168114610109575f5ffd5b94602093909301359350505056fea2646970667358221220ef17cb88f31abc6785ce8ca1da307ad7b971007491ef096680849eef2eda85e364736f6c634300081c0033","linkReferences":{}},"methodIdentifiers":{"burnOnSui(address,uint256)":"51c7e673","mintOnSui(address,uint256)":"7ca724c5"},"id":1}